:020000022000DC
:1060000000000120756302005D6302005F6302000F
:106010006163020063630200656302000000000028
:1060200000000000000000000000000067630200A4
:1060300069630200000000006B6302006D630200F0
:1060400081EE02006F630200E5FB02006F63020055
:106050006F6302006F630200E1FA02006F630200E7
:106060006F6302006F6302006F6302006F630200E0
:106070006F6302006F6302006F6302006F630200D0
:106080006F630200499402006F6302006F630200B5
:106090006F6302006F63020011D803006F63020098
:1060A0006F6302006F6302006F6302006F630200A0
:1060B0006F6302006F630200000000000000000038
:1060C0006F6302006F6302006F6302006F63020080
:1060D000812103006F6302006F6302000000000073
:1060E00000000000000000000000000000000000B0
:1060F00000000000000000000000000000000000A0
:10610000000000000000000000000000000000008F
:10611000000000000000000000000000000000007F
:10612000000000000000000000000000000000006F
:10613000000000000000000000000000000000005F
:10614000000000000000000000000000000000004F
:10615000000000000000000000000000000000003F
:10616000000000000000000000000000000000002F
:10617000000000000000000000000000000000001F
:10618000000000000000000000000000000000000F
:1061900000000000000000000000000000000000FF
:1061A00000000000000000000000000000000000EF
:1061B00000000000000000000000000000000000DF
:1061C00000000000000000000000000000000000CF
:1061D00000000000000000000000000000000000BF
:1061E00000000000000000000000000000000000AF
:1061F000000000000000000000000000000000009F
:10620000354936480A1A02D0072291438D4634494F
:1062100034480A1A06D00722914381F309880222E2
:1062200082F3148830483149314A00F044F831484B
:106230003149324A00F03FF831483249324A00F0E1
:106240003AF832483249334A00F035F83248334997
:10625000334A00F030F833483349344A00F02BF821
:1062600033483449344A00F026F83448344900228F
:1062700000F02CF833483449002200F027F8334866
:106280003349091A082902DB002202604160314AC1
:1062900090471F481F49884205D00268043003B464
:1062A000904703BCF7E700208646EC46002000211B
:1062B000294A9047FEE7884207D0521A05D0037852
:1062C00001300B700131013AF9D17047884202D098
:1062D00002700130FAE770470000012000E0002062
:1062E0000000012000000120D43E0400DC39002021
:1062F000F8400020D0630200D0630200B0F0030039
:10630000D43E0400DC390020DC3900205CF20300BC
:106310005CF203005CF203005CF203005CF2030039
:106320005CF203005CF203005CF20300D43E040064
:10633000F0450400F8400020F8400020F84000201C
:10634000B05B0020B05B0020B45B0020B45B002099
:10635000B47B00209D630200E53D0300FEE7FEE7FD
:10636000FEE7FEE7FEE7FEE7FEE7FEE7FEE7FEE705
:1063700000F002B8FFF7FCBF0F484FF00701884359
:1063800085460E4880470E48016841F4700101605F
:10639000BFF34F8FBFF36F8FFFF732BF09480A4932
:1063A0000A4A884207D0521A05D0037801300B7090
:1063B0000131013AF9D1704700000120C9DD020026
:1063C00088ED00E048F20300C8390020DC390020E5
:1063D00000487047A85B002000B585B00190019B84
:1063E000002B0AD0074B43F001030393019B9B0151
:1063F0000293039B0298984700E000BF05B05DF848
:1064000004FB00BF70F2030000B583B00190019B54
:10641000002B0AD04FF47A70FFF7DEFF019B013B9F
:106420000193019B002BF5D100E000BF03B05DF8A4
:1064300004FB08B511F0EAFD00BF08BD00B589B046
:10644000039002910192019B002B33D0002307930C
:1064500003230693029A079B1344019A19460020CE
:1064600011F084FD0590079A059B13440793019A48
:10647000059BD31A0193059B002B13D10F4B1B785F
:1064800083F00103DBB2002B13D10120FFF7BCFF27
:10649000069B013B0693069B002B03D1074B002272
:1064A0001A7007E0054B01221A70019B002BD1D115
:1064B00000E000BF00BF09B05DF804FBF840002019
:1064C00000B585B003900291054B00934023054A27
:1064D0000299039800F012F800BF05B05DF804FBC4
:1064E0003D640200FC40002082B0019000BF02B079
:1064F000704782B0019000BF02B0704700B5A1B0F4
:106500000590049103920293049803F039FF039BD2
:106510001593029B16930023179300238DF8603088
:1065200000231993229B1A9300231F930FA91F9BEB
:106530000822049803F0FEFF08231F93119B129377
:10654000BDF84030ADF84C30BDF84230ADF84E30BB
:1065500000238DF851309DF83C3003F00303DBB28B
:10656000012B26D10F9BC3F395231C939DF83C3040
:10657000C3F3C203DBB28DF85030BDF83C30C3F337
:106580008313DBB21B931B9B9A0009A91F9B0498E2
:1065900003F0D0FF1B9B9B001F9A13441F9312AA6A
:1065A00009A915AB009313461B9A1C9800F0FCFE3A
:1065B0002FE09DF83C3003F00303DBB2022B28D11F
:1065C000BDF83E30C3F389139BB21E939DF83C3057
:1065D000C3F3C203DBB28DF850301E9B082B28BFDB
:1065E00008231D9307A91F9B1D9A049803F0A2FF7F
:1065F0001F9A1D9B13441F931E9A1D9BD31A1E9313
:1066000015AB12AA07A81D9900F070FF1E9B002B66
:10661000E3D1049803F0C3FE00BF21B05DF804FB92
:1066200082B00190019BDB6801225A7100BF02B069
:106630007047000000B583B04FF0FF330193FFF7C0
:10664000F8FE0421084800F0CBFD0190019B002BCF
:1066500003DA064941200CF0BDFE0348FFF7E0FFD6
:1066600000BF03B05DF804FB38F2030088F20300BA
:1066700000B583B001900091019B1B681B680099D5
:106680000198984700BF03B05DF804FB00B583B0E4
:106690000190019B1B685B680198984700BF03B09D
:1066A0005DF804FB00B583B00190019B1B689B68FB
:1066B0000198984700BF03B05DF804FB82B00190D9
:1066C0000B468DF80330019BDB689DF803201A719F
:1066D00000BF02B0704782B00190019BDB681B795C
:1066E000184602B0704782B00190019BDB6801221E
:1066F0005A7100BF02B0704782B00190019BDB6805
:106700005B79184602B0704700B585B001900091E2
:106710000C4B01221A700C4803F096FD0390039B6A
:10672000002B01D0039B08E0084804F097FA084AC0
:10673000084BD31ADB0802930023184605B05DF816
:1067400004FB00BFA442002060F103000CF303002F
:1067500038F2030088F10300024A034BD31ADB0826
:106760001846704738F2030088F1030000B587B07F
:1067700001900B468DF803309DF80330002B1FD09D
:10678000FFF7EAFF04900023059313E0059B9B00AD
:106790000E4A13440393039B1B881A46019B1B68F4
:1067A0009A4204D1019B059A1A60002309E0059BD7
:1067B00001330593059A049B9A42E7D3052300E031
:1067C0000023184607B05DF804FB00BFDC39002049
:1067D00000B585B001900B468DF803309DF803207D
:1067E00001AB11461846FFF7C1FF0346002B07D146
:1067F000019BDB00054A13440393039B1B6800E0E5
:106800000023184605B05DF804FB00BF88F10300C3
:1068100084B001900B468DF80330019BDB00174AD2
:10682000134402939DF80330013B032B1CD801A2B3
:1068300052F823F0456802004D68020055680200D6
:106840005F68020002238DF80F3011E004238DF8F9
:106850000F300DE0029B1B798DF80F3008E0029B92
:106860005B798DF80F3003E000238DF80F3000BF07
:106870009DF80F30184604B0704700BF88F1030040
:1068800084B00190009100238DF80F30019B1B789C
:1068900003F00403DBB2002B24D0019B1B78C3F36D
:1068A0000103DBB2012B02D0022B0CD017E0009BBE
:1068B0001B68019A1288C2F38312D2B213449A1C45
:1068C000009B1A600BE0009B1B68019A5288C2F380
:1068D000891292B213449A1C009B1A6000BF0123D4
:1068E0008DF80F309DF80F30184604B07047000047
:1068F00000B58BB00023ADF826303E4802F0B7FF5C
:106900003D4802F0B4FF3D4B9B6804933C4B1B6831
:106910000693049A069B134002339B00374A1344A4
:106920000433089304AB19460898FFF7A9FF034600
:10693000002B09D0049A069B134002339B002F4A78
:10694000134404330893EDE700BF0023079311E0DD
:10695000049B5A1C0492069A1340079A920001A9BC
:106960000A44264902339B000B445B681360079B73
:1069700001330793079B012BEAD99DF80430C3F339
:106980000103DBB2012B10D0022B1CD1BDF80A3061
:10699000ADF82630BDF80630C3F389139BB203333C
:1069A0009A08049B1344049313E0BDF80A30ADF831
:1069B0002630BDF80430C3F38313DBB21A46049BC0
:1069C0001344049305E00F494FF4C2700CF002FD2C
:1069D00000BF094802F057FF0590059B002B02D02D
:1069E000049B064A9360BDF8263018460BB05DF84C
:1069F00004FB00BFBC460020B8460020A442002093
:106A0000E43900201CF3030000B585B000210748DD
:106A100002F062FE0390039B0293029B83F3100338
:106A20000193019B184605B05DF804FBC0460020A9
:106A300000B589B00390029101920093039B1B0C57
:106A40000793FFF7E1FF0690FFF786FE0246079BDC
:106A5000934204D3214940F2A9100CF0BBFC069BE1
:106A60001904009B5A1C0A9B1340079A0A431C49AD
:106A700002339B000B445A60009A0A9B1340023376
:106A80009B00174A134404330593039B03F0070349
:106A9000D9B2059A137861F3C5031370019B03F013
:106AA0000F03D9B2059A138861F389131380029BEF
:106AB000C3F31501059A136861F39F231360059AC8
:106AC0001378012161F301031370059A13786FF3B2
:106AD0008203137000BF09B05DF804FB1CF30300D0
:106AE000A442002000B58DB00390029113468DF8AA
:106AF0000730039B02330A9301238DF827300023CC
:106B00008DF81B300DF11B03184602F07FF8404B47
:106B10005A68029B1A603F4B1A683D4B99683C4B80
:106B20005B68CB1A134401330B9314E001213A48FC
:106B300002F061FEFFF7DCFE07900799364802F08D
:106B40005AFE344B1A68324B9968314B5B68CB1A4A
:106B5000134401330B930A9A0B9B9A42E6D89DF893
:106B60002730002B48D0002305939DF80730002BD9
:106B700017D09DF81430012262F301038DF8143010
:106B80009DF8143043F004038DF81430039B03F098
:106B90000F03DAB2BDF8143062F38913ADF8143084
:106BA00016E09DF81430022262F301038DF81430D0
:106BB0009DF8143043F004038DF81430039BC3F3A5
:106BC00009039AB2BDF8163062F38F13ADF8163090
:106BD0000F4B5A680F4B1B68134002339B000C4A43
:106BE000134404330893059A089B1A60084B5A68AB
:106BF0000A9B1344064A53609DF81B30184602F066
:106C00001BF89DF8273018460DB05DF804FB00BF57
:106C1000A4420020E4390020C046002000B58BB01B
:106C200005900491039202931F4B1B68079306ABD8
:106C3000012219460298FFF755FF0346002B24D086
:106C4000069B023309930023089311E0089B9B00E5
:106C5000039A1A44099B591C099107990B40126821
:106C6000124902339B000B445A60089B013308937E
:106C7000089A029B9A42E9D3069A079B009313460F
:106C8000029A04990598FFF7D3FE084B1B78002B56
:106C900005D000BF00F09AF80346002BFAD100BFE0
:106CA0000BB05DF804FB00BFE4390020A4420020D3
:106CB00000B583B001900091002300220099019853
:106CC000FFF7ACFF00BF03B05DF804FB00B587B071
:106CD000039002910192019B059305AA0123029959
:106CE0000398FFF79BFF00BF07B05DF804FB00B5FA
:106CF00087B00390029101920093019B0493009B43
:106D0000059304AA022302990398FFF787FF00BFA7
:106D100007B05DF804FB00B589B0039002910192C1
:106D20000093019B0593009B06930A9B079305AA7A
:106D3000032302990398FFF771FF00BF09B05DF8C4
:106D400004FB00B58BB00390029101920093019B6C
:106D50000593009B06930C9B07930D9B08930E9B3A
:106D6000099305AA052302990398FFF757FF00BF6F
:106D70000BB05DF804FB00B58BB00390029101925B
:106D80000093019B0493009B05930C9B06930D9B22
:106D900007930E9B08930F9B099304AA062302995D
:106DA0000398FFF73BFF00BF0BB05DF804FB00004A
:106DB000054B9A68044B5B689A420CBF0123002381
:106DC000DBB21846704700BFA442002000B599B05E
:106DD000FFF7EEFF0346002B01D00023C0E19B4BE1
:106DE0000022C3F81824BFF34F8F00BF974B9B6856
:106DF0000493974B1B681093049A109B1340023323
:106E00009B00924A134404331193002317930023E9
:106E1000169300230F9304AB19461198FFF730FD2A
:106E20000346002B19D0894BD3F81834002B14D10A
:106E3000864B5A68049B9A4205D8844B5B68834A08
:106E4000936000238CE1049A109B134002339B0053
:106E50007E4A134404331193DDE70023159311E0B8
:106E6000049B5A1C0492109A1340159A920001A98F
:106E70000A44764902339B000B445B681360159B00
:106E800001331593159B012BEAD99DF8043003F0CB
:106E90000303DBB2022B40F09C80BDF80630C3F345
:106EA00089139BB20D93BDF80630C3F389139BB2CF
:106EB000502B28BF50239BB20C930C9BC3F30903A8
:106EC0009AB2BDF8063062F38F13ADF806300C9B12
:106ED00008330B939DF80430C3F3C203DBB20F9366
:106EE0000B995C4803F0BBF91790179B002B00F03F
:106EF000D380179803F044FA01A9169B082217982B
:106F000003F0FAFA169B08331693049BDA43109B9E
:106F1000134001339B000A930C9A0A9B9A4242D970
:106F20000A9B002B08D0049A109B134002339B004D
:106F3000464A1344043300E0474B08930A9B002B56
:106F400002D00A9BDBB201E00C9BDBB28DF81F3054
:106F50000A9B002B01D0404B00E0002306930A9BC4
:106F6000002B06D00C9BDAB20A9BDBB2D31ADBB241
:106F700000E000238DF817309DF81F20169B08991C
:106F8000179803F0B9FA9DF81F30169A1344169318
:106F9000069B002B16D09DF81720169B0699179874
:106FA00003F0AAFA0EE0049A109B134002339B00F0
:106FB000264A134404330993169B0C9A099917988F
:106FC00003F09AFA0D9B03339A08049B134404932D
:106FD00062E09DF8043003F00303DBB2012B5BD1C8
:106FE000BDF80430C3F38313DBB2062B28BF06239E
:106FF000DAB2BDF8043062F38913ADF80430BDF89D
:107000000430C3F38313DBB202330E939DF80430D4
:10701000C3F3C203DBB20F930E9B9B0019460D48CE
:1070200003F01DF91790179B002B35D0179803F02C
:10703000A7F901A9169B0822179803F05DFA169B81
:1070400008331693002315931DE000BFA4420020CF
:10705000E439002060F10300B0420020049B5A1C78
:107060000492109A134002339B003F4A1344191DA7
:10707000169B0422179803F03FFA169B04331693CD
:10708000159B01331593BDF80430C3F38313DBB2B2
:107090001A46159B9342E1D3179B002B40D0324BED
:1070A000D3F810341493304BD3F81834002B1BD082
:1070B000179803F074F94DE000238DF84F301498C1
:1070C000FFF71AFB0346002B02D001238DF84F3047
:1070D0009DF84F30002B03D017991498FFF7C8FA8A
:1070E000149BDB681B681493149B002BE4D1179846
:1070F00003F055F900238DF803300DF10303184612
:1071000001F084FD184BD3F81834002B02D1049BF6
:10711000154A93609DF80330184601F08DFD19E083
:10712000114BD3F81034129306E01298FFF7BAFA15
:10713000129BDB681B681293129B002BF5D10B4A44
:107140000B4BD31ADB081B0443F002030949184612
:10715000FFF7AEFDFFF72CFE034683F00103DBB221
:10716000184619B05DF804FBA4420020B8F10300F2
:1071700088F1030098F3030000B585B00023039362
:1071800023E0164BD3F81034029301238DF8073017
:107190000FE00298FFF79FFA03461A46039B9342BB
:1071A00003D100238DF8073006E0029BDB681B68E3
:1071B0000293029B002BECD19DF80730002B01D0ED
:1071C000039B07E0039B01330393039B092BD8DD4B
:1071D0004FF0FF33184605B05DF804FBA4420020D1
:1071E00000B585B001900B468DF80330FFF7C4FF62
:1071F0000390039BB3F1FF3F01D1039B22E0039B6C
:10720000DBB219460198FFF759FA104BD3F8103446
:10721000002B08D10D4A019BC2F81034019BDB689A
:1072200000221A600DE0094BD3F81034DA68019B94
:10723000DB6812681A60054BD3F81034DB68019ADA
:107240001A60039B184605B05DF804FBA4420020B9
:1072500000B583B00C4BD3F8103401930A4B0122D4
:107260001A7009E00198FFF73EFA0198FFF70EFA4D
:10727000019BDB681B680193019B002BF2D100BFCF
:1072800000BF03B05DF804FBA442002082B001906F
:10729000009100BF02B0704710B584B00390029116
:1072A000039BDB88002B0AD0039BDB881A461F4B0D
:1072B000009313461E4A1F49029802F021FC039BCB
:1072C0001B7A052B2ED0039B5B7A002B12D0039BDD
:1072D0009B881A46039B1B7A19461046FFF798FABB
:1072E00003461A46144B53F822301A4613490298A3
:1072F00002F006FC039B1B6819460298FFF7C6FFC5
:10730000039B1B7A1A460E4B53F82240039B9B8823
:1073100000211846FFF75CFA034622460949029805
:1073200002F0EEFB00BF04B010BD00BFCCF30300C1
:10733000DCF3030014F40300FC3900202CF40300F8
:10734000E839002030F4030000B585B003900291C5
:1073500013468DF80730039B1B7A052B0FD0039B38
:107360005B7A002B06D00D4B1B681A460C4902981D
:1073700002F0C6FB0B49029802F0C2FB07E09DF841
:107380000730002B03D00749029802F0B9FB02989E
:1073900002F094FB00BF05B05DF804FBFC3900204F
:1073A0002CF403003CF4030030B58BB00790069139
:1073B000059204930E9B1B7B8DF827300E9B0022B9
:1073C0001A730E990498FFF767FF059B062B7FD869
:1073D00001A252F823F000BFF5730200FF73020010
:1073E0000F740200237402004174020069740200E9
:1073F0009974020007990E9802F082FB69E0069BDF
:107400001B681A4607990E9802F07AFB61E0069B0A
:107410001A68069B04331B6807990E9802F070FBEC
:1074200057E0069B1A68069B04331968069B0833CD
:107430001B6800930B4607990E9802F061FB48E029
:10744000069B1968069B04331868069B08331B6863
:10745000069A0C3212680192009303460A46079975
:107460000E9802F04DFB34E0069B1868069B04332F
:107470001C68069B08331B68069A0C321268069932
:107480001031096802910192009323460246079940
:107490000E9802F035FB1CE0069B1C68069B04332B
:1074A0001D68069B08331B68069A0C321268069901
:1074B0001031096806981430006803900291019217
:1074C00000932B46224607990E9802F019FB00E024
:1074D00000BF00220E990498FFF736FF0E9B9DF81F
:1074E00027201A7300BF0BB030BD00BF00B587B0B6
:1074F0000390029101920093029B082B60D8009B9D
:107500001B7B8DF81330009B00221A7300990198A1
:10751000FFF7C2FE0023059314E0059A029B9A42EE
:1075200009D2039A059B13441B781A4626490098F2
:1075300002F0E6FA03E02549009802F0E1FA059B23
:1075400001330593059B072BE7D92149009802F0E9
:10755000D7FA0023059326E0059A029B9A421BD294
:10756000039A059B13441B788DF812309DF8123056
:107570007E2B0AD89DF81230184616F0DFFC034621
:10758000002B02D09DF8123000E02E231A4611493C
:10759000009802F0B5FA03E00F49009802F0B0FA43
:1075A000059B01330593059B072BD5D90122009933
:1075B0000198FFF7C9FE009B9DF813201A7300E0A5
:1075C00000BF07B05DF804FB40F4030048F403007B
:1075D0004CF4030050F4030054F4030084B0034659
:1075E0008DF807309DF807305B08DBB21A460D4B6B
:1075F0009B5C8DF80F309DF8073003F00103002BE2
:1076000004D09DF80F301B09DBB204E09DF80F3069
:1076100003F00F03DBB28DF80E309DF80E301846E4
:1076200004B07047D846002084B003460A468DF85F
:10763000073013468DF806309DF8073003F001033C
:10764000002B01D00F2300E0F0238DF80F309DF8C0
:10765000073003F00103002B04D09DF806301B0116
:10766000DBB201E09DF806308DF80E309DF8073052
:107670005B08DBB21A46114B9A5C9DF807305B0839
:10768000DBB219469DF80F301340DAB20B4B5A5457
:107690009DF807305B08DBB21A46084B9A5C9DF8F0
:1076A00007305B08DBB219469DF80E301343DAB29F
:1076B000024B5A5400BF04B0704700BFD8460020A8
:1076C00000B585B003468DF807300023039310E022
:1076D0000F4B1A68039BDB0013440293029B1B7839
:1076E0009DF807209A4201D1029B0DE0039B0133D4
:1076F0000393084B1B781A46039B9342E8DB064929
:1077000088200BF067FE0023184605B05DF804FBE7
:10771000C4460020C846002064F4030000B585B0CC
:1077200003460A468DF8073013468DF806309DF85B
:1077300007301846FFF7C4FF0390039B002B0BD0C4
:10774000039B5B68002B07D0039B5B689DF80610CA
:107750009DF807201046984700BF05B05DF804FB70
:107760002DE9F04F87B003460A468DF80F301346D7
:107770008DF80E309DF80F301846FFF72FFF0346A7
:10778000042B00F2C28001A252F823F0A17702007C
:1077900015780200317802006178020077780200E3
:1077A0009DF80E30002B00F0AD809DF80F300121C8
:1077B0001846FFF739FF00238DF817300DF1170336
:1077C000184601F023FA9DF80F104FF001024FF018
:1077D0000003A1F12004C1F1200003FA01F702FA2D
:1077E00004F4274322FA00F0074302FA01F6494B5A
:1077F000D3E9002346EA020100913B430193454B44
:10780000DDE90012C3E900129DF81730184601F0B7
:1078100013FA77E09DF80E30002B01D0022200E031
:1078200000229DF80F3011461846FFF7FDFE6CE070
:107830009DF80E30002B0CD09DF80F300321184618
:10784000FFF7F2FE9DF80F3001211846FFF766FFA3
:107850005BE09DF80F3001211846FFF7E5FE54E08C
:107860009DF80E30002B4FD19DF80F3004211846A3
:10787000FFF7DAFE48E09DF80E30002B06D09DF8A9
:107880000F3003211846FFF7CFFE3EE09DF80F3082
:1078900000211846FFF7C8FE9DF80F30002118465A
:1078A000FFF73CFF00238DF816300DF11603184644
:1078B00001F0ACF99DF80F104FF001024FF00003FA
:1078C000A1F12006C1F1200003FA01F502FA06F643
:1078D000354322FA00F0054302FA01F46FEA040886
:1078E0006FEA05090B4BD3E9002308EA020A09EA0B
:1078F000030B084BC3E900AB9DF81630184601F0A6
:107900009BF902E000BF00E000BF00BF07B0BDE888
:10791000F08F00BFD046002000B583B00648074B6B
:107920001B685B080022194600F05AFE019000BF58
:1079300003B05DF804FB00BF203A0020CC460020D5
:1079400000B587B001900023059328E01C4B1A680E
:10795000059BDB0013440493049B1B78184608F036
:107960000FF803468DF80F30049B5B78012B0CBF9A
:1079700001230023DBB21A469DF80F309A420CBF58
:10798000012300238DF80E30049B1B789DF80E20F8
:1079900011461846FFF7E4FE059B01330593094B9A
:1079A0001B781A46059B9342D0DB074BD3E9002393
:1079B000134301D0FFF7B0FF00BF07B05DF804FB31
:1079C000C4460020C8460020D046002000B585B03F
:1079D00001900B468DF80330019BDBB21846FFF790
:1079E0006FFE0390039B1B78184607F0C9FF034600
:1079F0008DF80B30039B5B78012B0CBF0123002318
:107A0000DBB21A469DF80B309A420CBF01230023CB
:107A10008DF80A309DF80A30002B06D0054BD3E9CB
:107A20000023134301D1FFF777FF00BF05B05DF8D6
:107A300004FB00BFD046002000B58BB003900B467E
:107A400001928DF80B30019B092B01D8072367E0C9
:107A500007F08AFE034683F00103DBB2002B09D056
:107A600007F01EFE0990099B0893089B002B01D08C
:107A7000089B55E02C4A039B13602C4A9DF80B3061
:107A800013702B4A019B136010220021294816F025
:107A90006EFC29494FF000024FF00003C1E90023BA
:107AA00031E09DF80B30DB00039A13440793032366
:107AB0008DF8143000238DF815309DF816306FF3D3
:107AC00000038DF816309DF816306FF341038DF8E2
:107AD00016309DF816306FF382038DF81630079B31
:107AE0009B788DF81530079B1B78184605AB134A19
:107AF000194607F045FE0990099B0693069B002B4B
:107B000001D0069B0CE09DF80B305A1E8DF80B201F
:107B1000002BC6D10A4A00210A4800F027FD03467F
:107B200018460BB05DF804FBC4460020C846002090
:107B3000CC460020D8460020D0460020CD79020057
:107B400041790200D8F4030000B583B0114B1B68E3
:107B5000002B04D1104940F235100BF03BFC002300
:107B600001930CE00B4B1A68019BDB0013441B785C
:107B70000121184607F080FE019B01330193074B5A
:107B80001B781A46019B9342ECD30023184603B09E
:107B90005DF804FBC446002064F40300C8460020DE
:107BA00086B003900291019201238DF817309DF861
:107BB0001730204A039B13601E4A029B53601D4AE4
:107BC000019B9360039B44F20102934212D0039BFA
:107BD00044F20202934220D1019B164AD360154B16
:107BE000DB681B68134A9361124BDB685B68114AC0
:107BF000D36112E0019B0F4A13610E4B1B699B6816
:107C00000C4A53610B4B1B691B680A4A9361094B71
:107C10001B695B68074AD36100BF72B600BF00BF33
:107C20009DF81730DBB2002BFAD162B600BF00BF5F
:107C300006B07047E846002000B583B0029000917E
:107C4000019244F2010071466A4600F003F803B065
:107C500000BD00BF30B58BB007900691059272B69B
:107C600000BFFFF7F5FA00BFFFF7B0F80346002B9F
:107C7000FAD1079B44F2020293422FD0079B44F2B1
:107C80000202934269D8079B44F20102934237D023
:107C9000079B44F2010293425FD8079B012B05D05A
:107CA000079B41F2010293420CD056E0394A3A4B0D
:107CB000D31ADB081B0443F0010338491846FEF7CA
:107CC000F7FF57E0334A344BD31ADB081B0443F069
:107CD000010333491846FEF7EBFF4BE0059B099380
:107CE0002C4A2D4BD31ADB081B0443F00100099BDF
:107CF0005B681A46099B1B682A49FEF7F8FF39E0C2
:107D0000059B0893234A244BD31ADB081B0443F03A
:107D10000104089B9D68089B9B68184603F0BEF809
:107D200003461846089B5B681946089B1B68069A21
:107D300002920193009103462A461B492046FFF711
:107D400000F8144A144BD31ADB081B0443F0010358
:107D500016491846FEF7ACFF0CE00E4A0E4BD31A3C
:107D6000DB081B0443F00103069A11491846FEF78D
:107D7000ADFF00BF0F4B1B6803F00103002B00D0C9
:107D800000BE059A06990798FFF70AFF00BF0BB0DF
:107D900030BD00BFB8F1030088F10300DCF403003C
:107DA000FCF4030020F503003CF5030064F5030038
:107DB00078F50300F0ED00E084B00190019B9B6832
:107DC0000393019BDA68039BD31A184604B07047EB
:107DD00082B001900B468DF80330019B1A68019B1D
:107DE000DB68019989880B4013449DF803201A70C1
:107DF000019BDB685A1C019BDA6000BF02B0704730
:107E000084B003900B460192ADF80A30039B1A68C8
:107E1000039B9968BDF80A300B44039989880B408D
:107E200013441A78019B1A7000BF04B0704700B564
:107E300083B001900091009A00210198FFF7E0FFC4
:107E4000019B9B685A1C019B9A6000BF03B05DF8C0
:107E500004FB84B0039002911346ADF80630029BF8
:107E6000002B01D10E231DE0BDF80630002B07D0FA
:107E7000BDF806305A1EBDF806301340002B01D065
:107E800009230FE0039B029A1A60BDF80630013BFC
:107E90009AB2039B9A80039B00229A60039B002264
:107EA000DA600023184604B0704700B583B0019033
:107EB0000B468DF803300198FFF77EFF0246019BC9
:107EC0009B889A4207D89DF8033019460198FFF71E
:107ED0007FFF002300E00423184603B05DF804FB95
:107EE00000B583B0019000910198FFF765FF03464C
:107EF000002B05D000990198FFF799FF002300E0BF
:107F00000523184603B05DF804FB00002DE9F0439B
:107F100083B0144801F07DFA034600221C46154642
:107F2000114BD3E9002314EB020845EB0309CDE91B
:107F300000890E4BD3E90023DDE90001904271EB8B
:107F4000030307D2DDE9002312F1807643F1000735
:107F5000CDE90067DDE900231046194603B0BDE80E
:107F6000F08300BF403A002010470020184700204F
:107F700088B001900091019B0793009B0693079B9B
:107F8000D3E90223CDE90423069BD3E90223CDE9FB
:107F90000223DDE90423DDE90201904271EB0303D2
:107FA0002CBF01230023DBB2184608B07047000045
:107FB000F0B585B00190019B5B69002B03D143496B
:107FC000A5200BF007FA00238DF80F30404B1B78EB
:107FD000002B75D0019B002B72D0FFF797FF019B00
:107FE000D3E90223904271EB030358D300238DF8A9
:107FF0000D300DF10D03184600F008FE019B1B69C2
:10800000002B06D101994FF0FF324FF0FF33C1E949
:1080100002239DF80D30184600F00EFE019B5B69AF
:10802000019A92691046984700238DF80C3003ABF3
:10803000184600F0EBFD019B1B69002B1AD0019B39
:10804000D3E90223B3F1FF3F08BFB2F1FF3F11D0E4
:10805000019BD3E902230199096900200C460546DA
:10806000161943EB0507019BC3E9026701238DF84D
:108070000E3002E000238DF80E309DF80C301846CB
:1080800000F0DAFD9DF80E30002B19D0019B194647
:10809000104802F05DFE01238DF80F3010E0019BC7
:1080A000D3E90223B3F1FF3F08BFB2F1FF3F07D08E
:1080B000019B1946074802F04BFE01238DF80F3053
:1080C0009DF80F30184605B0F0BD00BF9CF50300C9
:1080D0000C47002014F6030030B58BB001900091DE
:1080E0000D230993009B00221A70019BD3E9022300
:1080F000CDE90623FFF70AFFDDE90623141A63EB37
:108100000105CDE90445DDE90423012A73F10003EB
:1081100018DB049BB3F5350F05D300F00BFB0246CB
:10812000144B134400E0069B03934FF49603039A09
:108130000021114801F060F80990099B002B05D13E
:10814000012314E000210C4801F02EF9099B0D2BAE
:1081500007D10198FFF72CFF03461A46009B1A70BF
:1081600004E006494FF486700BF034F900231846FA
:108170000BB030BDFFFFB400403A00209CF5030077
:1081800000B583B0044802F01DFE0190019B184623
:1081900003B05DF804FB00BF14F6030000B583B024
:1081A000044802F031FE0190019B184603B05DF8CF
:1081B00004FB00BF14F6030000B583B0FFF7E0FF37
:1081C0000190019B002B06D001994FF0FF324FF038
:1081D000FF33C1E90223019B002BEFD100BF00BF99
:1081E00003B05DF804FB0000054BD3E9002312F156
:1081F000807043F10001024BC3E9000100BF7047EA
:108200001047002010B582B00190124B1B68002B64
:108210001DD0019801F0FDF804460021019801F0FD
:10822000E9F803461946204600F078FA0346B3F50C
:10823000960F04D3084940F241100BF0CBF8054BE0
:108240001B681846FFF7B4FE024B00221A6000BFFD
:1082500002B010BD084700209CF5030000B583B0B4
:108260000190FFF753FE02460B460349C1E9002384
:1082700000BF03B05DF804FB1847002000B587B0CD
:108280000190FFF78BFF049000238DF81730049BBB
:10829000002B58D0049BD3E90223B3F1FF3F08BF62
:1082A000B2F1FF3F02D1FFF76BFF54E02E4B1B688A
:1082B000002B03D101238DF817301DE0049BD3E977
:1082C0000201294B1B68D3E90223904271EB03039F
:1082D00012D201238DF81730234B1B68D3E90223F8
:1082E000B3F1FF3F08BFB2F1FF3F05D01E4B1B6843
:1082F00019461E4802F02CFD9DF81730002B2BD09C
:10830000FFF73EFF04900DF10F0319460498FFF7A5
:10831000E3FE0346002B12D0134B1B68002B02D147
:10832000019800F075FE104A049B13609DF80F3011
:1083300083F00103DBB2002BA3D000BF0FE00A4B98
:1083400000221A609DE7084B1B68002B06D101989C
:1083500000F074FE02E094E700BF00E000BF00BF41
:1083600007B05DF804FB00BF0847002014F60300C7
:1083700000B587B001902B4A03AB1946104601F0B7
:108380007EF9049045E0049B1B78022B2BD0022B36
:108390002FDC002B02D0012B11D02AE0049B5B685C
:1083A000D3E90223B3F1FF3F08BFB2F1FF3F22D070
:1083B000049B5B6819461C4802F0CAFC1BE0049B46
:1083C0005A681A4B1B689A4203D1184B00221A6054
:1083D00012E0049B5B681946134802F029FD03462E
:1083E0008DF8173008E0FFF7E7FE114B01221A70F5
:1083F00002E000BF00E000BF0A4A03AB1946104686
:1084000001F056F9074A03AB1946104601F037F957
:108410000490049B002BB6D100BF00BF07B05DF8ED
:1084200004FB00BF7847002014F603000847002033
:108430000C47002000B583B00190019800F0A7FF21
:108440000346002B01D0FFF7CFFE0021019800F07A
:10845000BCFF0346002B02D00198FFF7D3FE012199
:10846000019800F0B2FF0346002B02D00198FFF7FD
:10847000F5FE0198FFF77CFF0198FFF7FFFE00BFB4
:1084800003B05DF804FB000008B5024800F0CEFF21
:1084900000BF08BD403A002000B585B003460091FA
:1084A0008DF80730114A02AB1946104601F0BAF8B0
:1084B0000390039B002B13D0039B9DF807201A7099
:1084C000039B009A5A60094A02AB1946104601F014
:1084D000C2F80346002B01D0FFF7D6FF002300E0CF
:1084E0000423184605B05DF804FB00BF7847002060
:1084F00000B583B0164B1B6800931648082358221A
:10850000154901F048F80190019B002B01D0019B17
:1085100019E06B46114A1946114800F009FD019017
:10852000019B002B01D0019B0DE001210C4800F0C4
:108530001DFF01230B4A0121094800F095FD0A4B5C
:1085400001221A70019B184603B05DF804FB00BFBE
:1085500010F60300784700202047002035840200F1
:10856000403A0020FFFF7F000C47002000B587B095
:1085700003900B4601928DF80B30039B002B04D126
:10858000164940F25A200AF025FF019B002B04D126
:10859000124940F25B200AF01DFF019B002B01D124
:1085A000072317E0039B1B68059305994FF0FF32E3
:1085B0004FF0FF33C1E90223059B019A5A619DF8F0
:1085C0000B30012B0CBF01230023DBB21A46059BA5
:1085D0001A610023184607B05DF804FB9CF5030000
:1085E000F0B589B0039002910192039B002B04D156
:1085F000264940F26B200AF0EDFE039B0693002310
:108600008DF817300DF11703184600F0FFFA069B9E
:10861000D3E90223B3F1FF3F08BFB2F1FF3F11D10D
:10862000FFF774FC02460B46029900200C460546F3
:10863000161943EB0507069BC3E9026701238DF872
:108640001F3002E000238DF81F309DF817301846C8
:1086500000F0F2FA9DF81F3083F00103DBB2002B2B
:1086600001D000230EE0069B019A9A61069B1B69CC
:10867000002B02D0069B029A1A6106990020FFF790
:108680000BFF0346184609B0F0BD00BF9CF5030080
:1086900000B587B00190019B002B04D11E4940F228
:1086A00093200AF097FE019B049300238DF80F306E
:1086B0000DF10F03184600F0A9FA049BD3E9022339
:1086C000B3F1FF3F08BFB2F1FF3F03D100238DF8A4
:1086D000173009E004994FF0FF324FF0FF33C1E942
:1086E000022301238DF817309DF80F30184600F053
:1086F000A3FA9DF8173083F00103DBB2002B01D001
:10870000002304E004990120FFF7C6FE0346184643
:1087100007B05DF804FB00BF9CF5030082B0019038
:108720000091019A009BD31A23F07F43184602B0B0
:108730007047000008B5034800F06BFE034618467A
:1087400008BD00BF403A002000B583B00190019BF6
:108750001B781A460C4B9B5C002B05D0019B043305
:10876000184608F051FE0BE0019B1B781A46064B99
:108770009B5C002B04D1019B0C33184607F090FE44
:1087800000BF03B05DF804FB544A002000B587B079
:108790000390029113468DF8073000230593039B45
:1087A0001B781A46114B9B5C002B09D0039B0433AA
:1087B0009DF807200299184608F088FE05900FE002
:1087C000039B1B781A46094B9B5C002B08D1039B2B
:1087D0000C339DF807200299184607F0D9FE059042
:1087E000059B184607B05DF804FB00BF544A002003
:1087F00000B587B00390029113468DF8073000232F
:108800000593039B1B781A46114B9B5C002B09D0E8
:10881000039B04339DF807200299184608F02CFFAB
:1088200005900FE0039B1B781A46094B9B5C002BBD
:1088300008D1039B0C339DF807200299184607F0D6
:1088400087FF0590059B184607B05DF804FB00BF45
:10885000544A002084B00190019B9B680393019BC4
:10886000DA68039BD31A184604B0704700B587B086
:1088700001900091019B1B78022B45D0022B6ADCF2
:10888000002B52D0012B66D1019B1B7A002B05D106
:10889000012233493348FFF7ABFF5DE0019B5B6882
:1088A0001B7819463048FFF700FB0590059B002B0D
:1088B0000AD001238DF80C30059B04932B4B1B68C9
:1088C00003AA104698470DE02748FFF7C3FF034669
:1088D000002B07D000238DF80C30244B1B6803AA13
:1088E000104698472048FFF7B5FF03461E4A928876
:1088F000934205D801221A491A48FFF779FF2BE065
:108900001B4B01221A7027E002238DF80C30019BCB
:10891000DB680493012212491248FFF769FF134BE9
:108920001B6803AA1046984716E012491248FFF741
:10893000D7FA0346002B05D101220E490948FFF75B
:1089400025FF09E003238DF80C30084B1B6803AAB0
:108950001046984700E000BF00BF07B05DF804FB79
:1089600094470020483A0020984700208C47002078
:108970009547002090470020A847002030B591B0CF
:108980000390029101928DF803303C4A019B1360E1
:10899000029B002B01D107236DE0029B1968029B0B
:1089A0005B689BB21A463648FFF753FA0F900F9B4D
:1089B0000E930E9B002B01D00E9B5CE0029B9968EE
:1089C000029BDB689BB21A462E48FFF742FA0F90D3
:1089D0000F9B0D930D9B002B01D00D9B4BE02A4B61
:1089E00004AC1D460FCD0FC495E80F0084E80F00BE
:1089F000039B5B690A93039B1B7C002B14BF012321
:108A00000023DBB28DF824309DF803308DF82C3034
:108A1000039B5B7C002B01D00E2300E000238DF82C
:108A20002530039BDB680693039B9B680793039B9E
:108A30001B680593039B5B68049304AB134A1946B8
:108A4000134805F0E9FF0F900F9B0C930C9B002B34
:108A500001D00C9B0FE00F4B00221A70039B1B6888
:108A6000B3F1FF3F06D001220B490948FFF7C0FED2
:108A7000034600E00023184611B030BD8C470020AB
:108A800098470020A847002020F603006D880200C8
:108A9000483A0020954700209447002000B587B051
:108AA0000190019B002B03D11449CA200AF092FCCB
:108AB000134B1B788DF8173001991248FFF710FA05
:108AC00004909DF81730002B12D00D4B00221A7025
:108AD00001220D490D48FFF78BFE0390039B029383
:108AE000029B002B04D0054AD6210298FFF7A4F878
:108AF000049B184607B05DF804FB00BF40F6030076
:108B0000954700209847002094470020483A0020CD
:108B100008B50348FFF718FE0023184608BD00BF3C
:108B2000483A002082B0EFF310830093009B01933A
:108B300072B600BF019B184602B0704762B600BF14
:108B400000BF704700B585B00190FFF7EBFF0390C1
:108B5000164B9B68002B1BD1144B01229A60144BBF
:108B6000D3F88020134B1340104A1360104B114A66
:108B7000C3F880200E4BD3F884300C4A53600C4B62
:108B80004FF0FF32C3F88420019B00221A7002E0EC
:108B9000019B01221A70039B002B01D1FFF7CEFF2E
:108BA0000023184605B05DF804FB00BFB84700205D
:108BB00000E100E0FC06FFBD00B585B003468DF87E
:108BC0000730104B9B68002B16D09DF80730002B08
:108BD00012D1FFF7A7FF03900B4A0A4B1B681360E3
:108BE000094A084B5B685360064B00229A60039B5E
:108BF000002B01D1FFF7A2FF0023184605B05DF856
:108C000004FB00BFB847002000E100E000B583B0DE
:108C1000019000F02BF80346012B03D005494320B7
:108C20000AF0D8FB0198FFF78DFF00BF03B05DF895
:108C300004FB00BFB4F6030000B583B003468DF813
:108C4000073000F013F80346012B03D006495120EA
:108C50000AF0C0FB9DF807301846FFF7ADFF00BFD4
:108C600003B05DF804FB00BFB4F6030084B0EFF37B
:108C700005830193019BC3F308030393039B002B1C
:108C80000DD1EFF314830093009B0293029B03F03A
:108C90000103002B0CBF01230023DBB200E0012302
:108CA000184604B07047000082B003468DF80730C4
:108CB0009DF90730002B0CDB9DF8073003F01F02F5
:108CC00005499DF907305B09012000FA02F241F8DD
:108CD000232000BF02B0704700E100E082B00346ED
:108CE0008DF807309DF90730002B0DDB9DF807301C
:108CF00003F01F0206499DF907305B09012000FAC5
:108D000002F2403341F8232000BF02B0704700BF99
:108D100000E100E082B0034600918DF807309DF934
:108D20000730002B0ADB009BDAB20C499DF90730B3
:108D30005201D2B20B4483F800230BE0009BDAB25D
:108D400007499DF8073003F00F03043B5201D2B2EC
:108D50000B441A7600BF02B0704700BF00E100E08C
:108D600000ED00E000B583B003460A468DF80730F9
:108D700013468DF806309DF80630012B03D99DF877
:108D80000630032B0BD99DF80630042B03D99DF830
:108D90000630072B03D908496B200AF01BFB9DF80E
:108DA00006209DF9073011461846FFF7B3FF00BFB4
:108DB00003B05DF804FB00BF2CF7030000B583B0DF
:108DC00003468DF807309DF907301846FFF76CFF12
:108DD00000BF03B05DF804FB00B585B00190019BB6
:108DE000002B0AD0074B43F001030393019B9B0127
:108DF0000293039B0298984700E000BF05B05DF81E
:108E000004FB00BF40F8030084B00390029101927C
:108E1000039B029A02F5A872019943F8221000BF41
:108E200004B0704782B001900091019B009A02F556
:108E3000A87253F82230184602B0704782B00190F1
:108E40000091019B009AC3F8042300BF02B0704751
:108E500082B001900091019B009AC3F8082300BFE3
:108E600002B0704782B001900B46ADF80230BDF8F9
:108E70000230019A13441B68184602B0704784B050
:108E800001900B46ADF80230BDF80230019A134450
:108E900000221A60BDF80230019A13441B68039344
:108EA000039B00BF04B0704782B00190019BD3F8D0
:108EB0000435184602B0704700B583B001900091A8
:108EC000009BB3F5805F04D306494FF4BE700AF0EF
:108ED00081FA019B009AC3F8082500BF03B05DF832
:108EE00004FB00BF5CF7030082B001900B468DF8D5
:108EF00003309DF80320019B13441A46012313609D
:108F000000BF02B0704782B001900091019B009AAF
:108F1000C3F8442300BF02B0704782B001900091B3
:108F2000019B009AC3F8482300BF02B070470000BD
:108F300000B587B0039002910192039B002B03D1EF
:108F40002D4955200AF046FA029B002B03D12A49ED
:108F500056200AF03FFA019B002B03D126495720E7
:108F60000AF038FA039B5B791946244A019B42F8C0
:108F70002130039B5B79224ADB0013441B79002BD1
:108F80000ED0082305931F4A1F4BD31ADB081B047E
:108F900043F002031D491846FDF78AFE059B27E0B2
:108FA000039B1A68029B1B8819461046FFF784FF33
:108FB000039B93F90420029B9B7819461046FFF708
:108FC000D1FE039B93F904301846FFF7F7FE039B8D
:108FD0005B790B4ADB00134401221A71039B5B7916
:108FE0001946074A039B42F8313000230593059B3D
:108FF000184607B05DF804FB8CF70300C447002057
:10900000C8470020C8F1030088F10300FCF7030003
:1090100000B583B00190019B002B03D10649872046
:109020000AF0D8F9019B1B6800211846FFF75CFF86
:1090300000BF03B05DF804FB8CF7030000B583B0FC
:109040000190019B002B03D106498D200AF0C2F943
:10905000019B1B6804211846FFF746FF00BF03B0C1
:109060005DF804FB8CF7030000B587B00390029114
:1090700001928DF80330039B002B03D121499620E8
:109080000AF0A8F94FF48032029B02FA03F3059329
:10909000029B50339BB29B00ADF81230019B23F032
:1090A0007F430193039B1B6805991846FFF7D0FE89
:1090B000039B1B6805991846FFF72FFF039B1B684E
:1090C000BDF8122011461846FFF7D9FE039B1B6816
:1090D000019A02991846FFF797FE039B1B680599B2
:1090E0001846FFF710FF9DF80330002B05D0039BB7
:1090F0001B6805991846FFF7A1FE00BF07B05DF891
:1091000004FB00BF8CF7030000B585B0039002910B
:1091100013468DF80730039B002B03D10B49A92080
:109120000AF058F9039B1B6802991846FFF7EBFEFB
:109130009DF80730002B05D0039B1B680299184649
:10914000FFF77CFE00BF05B05DF804FB8CF7030061
:1091500000B583B001900091019B002B03D10A4917
:10916000B3200AF037F9019B1B6800991846FFF7F6
:10917000D4FE019B1B6800991846FFF769FE00BFEB
:1091800003B05DF804FB00BF8CF7030000B583B0AB
:1091900001900B46ADF80230019B002B03D10F4923
:1091A000BA200AF017F9019B1B68BDF8022011468E
:1091B0001846FFF757FE0346002B09D0019B1B689A
:1091C000BDF8022011461846FFF759FE012300E0C2
:1091D0000023184603B05DF804FB00BF8CF70300C2
:1091E00082B001900091019A009BD31A23F07F4333
:1091F000184602B07047000000B58BB00390029192
:1092000001920093039B002B03D15749CD200AF014
:10921000E1F84FF48032029B02FA03F30993029BB8
:1092200050339BB29B00ADF82230019B23F07F436B
:10923000019309990398FFF78BFF039B1B6818465E
:10924000FFF732FE0790039B1B6802991846FFF751
:10925000E9FD0690039B1B68079A02991846FFF7E1
:10926000D3FD039B1B68BDF8222011461846FFF76B
:1092700006FE07990698FFF7B3FF0346012B0AD1B4
:109280001020FFF7A9FD039B1B68BDF822201146A3
:109290001846FFF7F4FD039B1B681846FFF704FE12
:1092A000079007990198FFF79BFF0590039B1B68A8
:1092B00009991846FFF727FE059B012B15D1039B43
:1092C0001868019B01331A460299FFF79DFD102093
:1092D000FFF782FD039B1B681846FFF7E5FD02467A
:1092E000079B934235D00D2339E0039B1B68019AFD
:1092F00002991846FFF788FD039B1B681846FFF785
:10930000D3FD0790019B013B07991846FFF768FFC3
:109310000590009BC3F1FF1303F57F43059A9A4222
:1093200001D90D231BE0059B002B12D1039B18686C
:10933000019B01331A460299FFF766FD039B1B68E8
:109340001846FFF7B1FD0246079B934201D00D235B
:1093500005E0012209990398FFF7D6FE002318467D
:109360000BB05DF804FB00BF8CF7030000B583B0C1
:1093700001900B468DF803309DF803301A46022108
:109380000198FFF7C1FE00BF03B05DF804FB00B514
:1093900083B001904FF482710198FFF7F7FE034606
:1093A000184603B05DF804FB00B583B0019000914E
:1093B0004FF48032009B02FA03F319460198FFF73D
:1093C000C7FE00BF03B05DF804FB00B585B0019097
:1093D0000091009B50339BB29B00ADF80E30BDF85E
:1093E0000E3019460198FFF7D1FE0346184605B026
:1093F0005DF804FB00B583B001900091019B1B68F0
:1094000000991846FFF70EFD0346184603B05DF8B5
:1094100004FB00B583B00190019B1B681846FFF761
:1094200043FD0346184603B05DF804FB00B583B066
:109430000190019B93F904301846FFF74FFC00BFE1
:1094400003B05DF804FB000008B5044B1B68044A38
:1094500012681046984700BF08BD00BFC4470020EF
:10946000C847002086B001900091019B53E8011F7E
:109470008AB2D88902449889824228BF121A188970
:10948000824202BFBFF32F8F002307E0C2EA01022E
:1094900043E801200028E9D14FF001038DF80F3097
:1094A000059002910492029A009B1A609DF80F3079
:1094B000DBB2184606B0704784B00190019951E8BC
:1094C000013FC3EA034341E80132002AF7D1039286
:1094D000029300BF04B0704786B001900091019BD9
:1094E00053E8021F1FFAA1F2D888824202BFBFF3DD
:1094F0002F8F00230DE0D88902449889824228BF2B
:10950000121AC1EA024243E802200028E8D14FF0D3
:1095100001038DF80F30059002910492029A009B8E
:109520001A609DF80F30DBB2184606B0704784B061
:109530000190019951E8023FC3EA234341E8023216
:10954000002AF7D10392029300BF04B0704786B09F
:109550000190019B53E8021FDA88B1EB314F4FF0C5
:10956000000017BF89B242EA024241EA024204E027
:109570005968B1EB314F08BF012043E802210029AF
:10958000E8D18DF80F00059104929DF80F30DBB201
:10959000184606B0704784B00390029111461A46EF
:1095A0000B46ADF806301346ADF80430029B002B95
:1095B00001D10E231FE0BDF80630BDF80420B3FB37
:1095C000F2F101FB02F29B1A9BB2002B01D009239E
:1095D00011E0039B029A1A60039B00225A60039BCE
:1095E00000229A60039BBDF806209A81039BBDF878
:1095F0000420DA810023184604B0704700B585B016
:1096000001900198FFF7A3FF03468DF80F309DF8F6
:109610000F30002B01D0002300E01123184605B0C5
:109620005DF804FB00B585B001900091009B1946E0
:109630000198FFF717FF0346002B07D0019B1B681B
:10964000009A128813440393039B00E000231846FA
:1096500005B05DF804FB00B583B001900091009B5C
:109660001A88009B5B889A4204D10198FFF724FF77
:10967000012300E00023184603B05DF804FB00B5A9
:1096800085B001900091009B19460198FFF724FFD7
:109690000346002B07D0019B1B68009A5288134495
:1096A0000393039B00E00023184605B05DF804FB1C
:1096B00000B583B001900091009B1A88009B5B88E5
:1096C0009A4204D10198FFF732FF012300E0002302
:1096D000184603B05DF804FB10B487B00190009108
:1096E000019B009A53E8004F104643E8000191F0B7
:1096F000000FF7D1059404900391059B184607B01D
:109700005DF8044B704710B487B001900091019B45
:10971000009A53E8004F44EA020043E8000191F048
:10972000000FF6D1059404900391059B184607B0ED
:109730005DF8044B704710B487B001900091019B15
:10974000009A53E8004F44EA020043E8000191F018
:10975000000FF6D1059404900391049B184607B0BE
:109760005DF8044B704710B487B001900091019BE5
:10977000009A53E8004F04EA020043E8000191F028
:10978000000FF6D1059404900391059B184607B08D
:109790005DF8044B704710B487B001900091019BB5
:1097A000009A53E8004F04EA020043E8000191F0F8
:1097B000000FF6D1059404900391049B184607B05E
:1097C0005DF8044B704710B487B001900091019B85
:1097D000009A53E8004F04EB020043E8000191F0C7
:1097E000000FF6D1059404900391059B184607B02D
:1097F0005DF8044B704710B487B001900091019B55
:10980000009A53E8004F04EB020043E8000191F096
:10981000000FF6D1059404900391049B184607B0FD
:109820005DF8044B704710B487B001900091019B24
:10983000009A53E8004FA4EB020043E8000191F0C6
:10984000000FF6D1059404900391049B184607B0CD
:109850005DF8044B704700B583B001900121019879
:10986000FFF751FF0346184603B05DF804FB00B54F
:1098700083B0019001210198FFF75DFF0346184670
:1098800003B05DF804FB00B583B00190002101989E
:10989000FFF769FF0346184603B05DF804FB0000BC
:1098A00000B583B001900B468DF80330019B002B6F
:1098B00003D10849E82009F08DFD019BDA689DF885
:1098C00003300199098A01FB03F31344184603B0DE
:1098D0005DF804FB48F8030000B583B001900091E7
:1098E000019B002B03D10849F52009F073FD009B73
:1098F000019AD2689B1A019A128AB3FBF2F3DBB287
:10990000184603B05DF804FB48F8030000B585B0C5
:109910000190019B002B01D10E234CE0019B1B68A1
:10992000002B03D12649FF2009F054FD019B5B6801
:10993000002B04D122494FF4807009F04BFD019BAC
:109940009B68002B04D11E4940F2011009F042FD32
:10995000019BDB68002B04D119494FF4817009F099
:1099600039FD019B1B8A002B04D1154940F20310DD
:1099700009F030FD019B9A68019B5B68D31A8DF852
:109980000F30019B1B68019A52681A6007E0019B27
:109990001A681368591C11609DF80F201A709DF801
:1099A0000F305A1E8DF80F20002BF0D1019B1B6841
:1099B00000221A710023184605B05DF804FB00BFB1
:1099C00048F8030000B585B00190019B002B04D13D
:1099D0001F494FF4927009F0FDFC0023039300230C
:1099E0008DF80A300DF10A031846FFF70FF9019BB5
:1099F0001B681A68019B5B689A421FD9019B1B6810
:109A00001A68013A1A601B681B7819460198FFF71B
:109A100047FF0390019B9A68019B1B681B68D31A40
:109A20008DF80B30019B1B681B799DF80B209A4227
:109A300004D9019B1B689DF80B201A719DF80A3010
:109A40001846FFF7F9F8039B184605B05DF804FBCC
:109A500048F8030010B584B001900091019B002BE1
:109A600004D1154940F2471009F0B4FC009B002BCB
:109A700004D111494FF4A47009F0ACFC009B03938E
:109A800000238DF80B300DF10B031846FFF7BEF8DD
:109A9000019B1B681C68621C1A6003990198FFF700
:109AA0001BFF034623709DF80B301846FFF7C4F8E0
:109AB00000BF04B010BD00BF48F8030000B583B07C
:109AC0000190019B002B03D10C49312009F082FC4D
:109AD000019B9B68002B0CD0019B5B69019A10696C
:109AE000019A1168019A92689847019B00229A6036
:109AF00000E000BF03B05DF804FB00BFBCF803004A
:109B00000EB400B584B00190019B002B03D118491D
:109B1000422009F05FFC019B5B69002B03D11449D3
:109B2000432009F057FC019B1B68002B03D110490F
:109B3000442009F04FFC019B5B68002B03D10C49CA
:109B4000452009F047FC059B002B0AD00023039316
:109B500006AB039303AB1A460599019800F0B0F9E0
:109B600000E000BF04B05DF804EB03B0704700BF35
:109B7000BCF8030000B583B001900B468DF80330AC
:109B8000019B1A68019B9B68581C019988601344CB
:109B90009DF803201A70019B9A68019B5B689A42AA
:109BA00002D30198FFF78AFF00BF03B05DF804FB02
:109BB00000B587B0039002910192009300230593B2
:109BC000009B03F00103002B24D00BE0029B013328
:109BD0000293059B013305939DF8133019460398B2
:109BE000FFF7C8FF029B1B788DF813309DF81330E8
:109BF000002BEBD106E0019B013B01932021039850
:109C0000FFF7B8FF019A059B9A422ED9019B002BC2
:109C1000F1D12AE0029B002B0BD0029814F0FCFB40
:109C2000059006E0019B013B019320210398FFF77B
:109C3000A1FF019A059B9A420FD9019B002BF1D1FC
:109C40000BE0029B01330293059B013305939DF8C2
:109C5000133019460398FFF78DFF029B1B788DF890
:109C600013309DF81330002BEBD100BF07B05DF827
:109C700004FB000000B589B00390029101920093AB
:109C8000029B07930123069307E0079A019BB2FB0F
:109C9000F3F30793069B01330693079A019B9A42BD
:109CA000F3D2009A069B9A4201D9009B06930B9B24
:109CB00003F00103002B22D10A9B002B1FD00B9B2A
:109CC00003F00203002B06D0009B002B03D13023AE
:109CD0008DF8173002E020238DF8173008E00A9B3A
:109CE000013B0A939DF8173019460398FFF742FF8E
:109CF0000A9B002B03D0069A0A9B9A42EFD30123BA
:109D00000793009B012B03D9009B013B009309E0C3
:109D1000029A079BB2FBF3F30493049A019B9A42C5
:109D200000D205E0079B019A02FB03F30793E8E7E3
:109D3000029A079BB2FBF3F30493049B079A02FB7E
:109D400003F3029AD31A0293154A049B13441B7817
:109D500019460398FFF70EFF079A019BB2FBF3F336
:109D60000793079B002BE3D10B9B03F00103002B10
:109D700011D00A9B002B0ED006E00A9B013B0A93F0
:109D800020210398FFF7F6FE0A9B002B03D0069ACA
:109D90000A9B9A42F1D300BF09B05DF804FB00BFF3
:109DA00094F9030000B589B00590049103920293E1
:109DB000049B002BB8BF5B4206930123079307E087
:109DC000039B069A92FBF3F30693079B01330793D9
:109DD000039B069A9A42F3DA029A079B9A4201D9A8
:109DE000029B07930A9B002B0AD0049B002B04DBE9
:109DF0000B9B03F00403002B02D00A9B013B0A9348
:109E00000B9B03F00203002B02D0029B002B16D009
:109E10000B9B03F00103002B11D10A9B002B0ED0EA
:109E200006E00A9B013B0A9320210598FFF7A2FE5A
:109E30000A9B002B03D0079A0A9B9A42F1D3049BFA
:109E4000002B07DA049B5B4204932D210598FFF752
:109E500091FE08E00B9B03F00403002B03D02B21A1
:109E60000598FFF787FE0B9B03F00203002B19D028
:109E70000B9B03F00103002B14D1029B002B11D18B
:109E80000A9B002B0ED006E00A9B013B0A9330216F
:109E90000598FFF76FFE0A9B002B03D0079A0A9BD9
:109EA0009A42F1D304990B9B01930A9B0093029B66
:109EB000039A0598FFF7DEFE00BF09B05DF804FBCA
:109EC00000B58FB0059004910392059B002B04D13F
:109ED000AD4940F2522009F07DFA059B5B69002BE9
:109EE00004D1A9494FF4157009F074FA059B1B6859
:109EF000002B04D1A44940F2552009F06BFA059BD0
:109F00005B68002B04D1A04940F2562009F062FAA8
:109F1000049B002B00F09381049B1B788DF8373055
:109F2000049B013304939DF83730002B00F07E81B1
:109F30009DF83730252B40F06D8100230A930123D3
:109F40000C93049B1B788DF837309DF83730302BFD
:109F50000DD0302B1BDC2B2B11D02D2B17D10A9BB6
:109F600043F001030A93049B0133049312E00A9B1C
:109F700043F002030A93049B013304930AE00A9B13
:109F800043F004030A93049B0133049302E000238B
:109F90000C9300BF0C9B002BD3D1002309939DF899
:109FA00037302A2B0CD1039B1B68191D039A1160B3
:109FB0001B68099A13440993049B013304931AE024
:109FC000049B1B788DF837309DF837302F2B12D932
:109FD0009DF83730392B0ED8049B01330493099A2E
:109FE00013469B0013445B001A469DF83730134418
:109FF000303B0993D3E700230B93049B1B788DF828
:10A0000037309DF837302E2B1DD1049B013304933C
:10A01000049B1B788DF837309DF837302F2B12D9E1
:10A020009DF83730392B0ED8049B013304930B9ADB
:10A0300013469B0013445B001A469DF837301344C7
:10A04000303B0B93E4E7049B1B788DF837309DF889
:10A0500037306C2B03D09DF83730682B07D1049B29
:10A0600001330493049B1B788DF83730EFE79DF89C
:10A070003730252B00F0C480252BC0F2C680782B0A
:10A0800000F3C380582BC0F2C080583B202B00F255
:10A09000BC8001A252F823F08DA102000BA20200A5
:10A0A0000BA202000BA202000BA202000BA20200F4
:10A0B0000BA202000BA202000BA202000BA20200E4
:10A0C0000BA202001DA102003FA102000BA2020090
:10A0D0000BA202000BA202000BA202003FA1020091
:10A0E0000BA202000BA202000BA202000BA20200B4
:10A0F0000BA202000BA20200CDA102000BA20200E3
:10A100000BA20200B1A102000BA2020063A1020097
:10A110000BA202000BA202008DA10200039B1B6890
:10A12000191D039A11601B680C930C9B8DF81F304E
:10A130009DF81F3019460598FFF71CFD66E0039B4C
:10A140001B68191D039A11601B680C930A9B0193ED
:10A15000099B00930B9B0A220C990598FFF722FE9E
:10A1600054E0039B1B68191D039A11601B680C9334
:10A170000C990A9B0193099B00930B9B0A2205985B
:10A18000FFF778FD42E000BF24F90300039B1B6842
:10A19000191D039A11601B680C930C990A9B01937B
:10A1A000099B00930B9B10220598FFF763FD2DE0A0
:10A1B000039B1B68191D039A11601B6808930A9B77
:10A1C000099A08990598FFF7F3FC1FE0039B1B68A9
:10A1D000191D039A11601B680C9330210598FFF735
:10A1E000C9FC78210598FFF7C5FC0C990023019361
:10A1F00008230093082310220598FFF73BFD05E094
:10A2000025210598FFF7B6FC00E000BF049B013351
:10A21000049305E09DF8373019460598FFF7AAFC2E
:10A22000049B1B78002B7FF477AE00E000BF059BFA
:10A230001B7B002B04D00598FFF740FC00E000BF1B
:10A240000FB05DF804FB00BF00B583B0019001982A
:10A25000FFF75CFB0346184603B05DF804FB00B54E
:10A260008BB001900091019B1B8A043B0793009ADD
:10A27000079B1344DA1C079BB2FBF3F38DF81B30EA
:10A280000198FFF79FFB0590059B002B01D1002350
:10A2900038E0059B00221A71059B01225A71079B29
:10A2A0009AB2059BDA80059B09939DF81B30013B10
:10A2B0000493099B019A1A60002308931DE00198FA
:10A2C000FFF780FB0390039B002B0ED0059B5B796F
:10A2D0000133DAB2059B5A71099B039A1A60039BFA
:10A2E000019A1A60039B099304E0059800F00EF8A8
:10A2F000002307E0089B01330893089A049B9A42C5
:10A30000DDD3059B18460BB05DF804FB00B58BB0A0
:10A310000190019B0793079B5B798DF81B30019B94
:10A3200008939DF81B30013B05930023099305E03A
:10A33000089B1B680893099B01330993099A059BA5
:10A340009A42F5D3089B1B680493019B0893002352
:10A3500009930BE0089B1B68039308990498FFF787
:10A3600079FB039B0893099B013309939DF81B30EC
:10A37000099A9A42EED300BF00BF0BB05DF804FB10
:10A3800000B585B00190019B0393039B0433012129
:10A390001846FFF730FA00BF05B05DF804FB00B5C2
:10A3A00087B00190019B0593059B0433012118465A
:10A3B000FFF739FA0346039303AB0493049B1B781E
:10A3C000002B02D10198FFF7A1FF00BF07B05DF895
:10A3D00004FB000000B591B003900291019200933C
:10A3E000039B002B03D14349B62008F0F3FF039BE6
:10A3F0000993039B0F93099BDB881A46099B5B79A2
:10A4000002FB03F3043B0893009A089B9A4203D390
:10A410003849C42008F0DEFF099BDB880793009BC6
:10A420001A1D079BB2FBF3F30E93009B0433079AAC
:10A43000B3FBF2F2079901FB02F29B1A0D93019B09
:10A440001A68009B1344089A9A4203D2089A009B08
:10A45000D31A01E0019B1B680C93019B0C9A1A60B4
:10A4600005E00F9B1B680F930E9B013B0E930E9B09
:10A47000002BF6D100230B93079A0D9BD31A0A9356
:10A480000A9A0C9B934228BF13460A932AE0029A29
:10A490000B9B134406930F9A0D9B134404330593AF
:10A4A0009DF84830002B05D00A9A0599069813F0BC
:10A4B00035FF04E00A9A0699059813F02FFF002350
:10A4C0000D930F9B1B680F930C9A0A9BD31A0C9346
:10A4D0000B9A0A9B13440B93079A0C9B934228BF39
:10A4E00013460A930C9B002BD1D100BF00BF11B0C3
:10A4F0005DF804FBA4F9030000B589B00590049150
:10A5000003920293039B079307AA00230093029BE5
:10A5100004990598FFF75EFF079B039A9A4203D0C0
:10A520000349F62008F056FF00BF09B05DF804FBB0
:10A53000A4F9030000B589B0059004910392029339
:10A54000039B079307AA01230093029B0499059894
:10A55000FFF740FF079B039A9A4204D004494FF447
:10A56000807008F037FF00BF09B05DF804FB00BF42
:10A57000A4F9030082B003468DF807309DF9073037
:10A58000002B0DDB9DF8073003F01F0206499DF9F3
:10A5900007305B09012000FA02F2603341F8232002
:10A5A00000BF02B0704700BF00E100E0BFF34F8F73
:10A5B00000BF064BDB6803F4E0620449044B13431D
:10A5C000CB60BFF34F8F00BF00BFFDE700ED00E0A1
:10A5D0000400FA0500B583B00190019B002B03D164
:10A5E0000449C42008F0F6FE019B5B68184603B0DE
:10A5F0005DF804FB18FA030000B583B00190019BDD
:10A60000002B03D10649722008F0E4FE019B0022D2
:10A610001A60BFF35F8F00BF00BF03B05DF804FB9B
:10A620006CFA030000B585B00190019B002B03D1AB
:10A630000A49852008F0CEFE01210198FFF74CF869
:10A640000390BFF35F8F00BF039B002B0CBF012360
:10A650000023DBB2184605B05DF804FB6CFA03007A
:10A6600000B583B00190019B002B03D10A499220D1
:10A6700008F0B0FE019B1B68012B03D00649932014
:10A6800008F0A8FEBFF35F8F00BF019B00221A6095
:10A6900000BF03B05DF804FB6CFA030033DF7047C2
:10A6A00000BF184641DF704700BF18464FF0804397
:10A6B0000122C3F80025BFF34F8F00BF20BFFDE785
:10A6C00000B585B000238DF807300DF1070318465B
:10A6D000FEF79CFAF1EE103A0393039B23F09F03DD
:10A6E0000293029BE1EE103A00BFBFF35F8F00BF01
:10A6F0002620FFF73FFF9DF807301846FEF79CFA2B
:10A70000039B03F00703002B03D004497D2008F0CE
:10A7100061FE00BF05B05DF804FB00BFB0FA0300A6
:10A7200008B5064B00221A700548FFF765FF05497A
:10A73000054800F0B1FA0023184608BDD8470020AC
:10A74000D447002028FB0300DC47002000B583B07D
:10A75000FFF7B6FF13F02EF80346002B0ED0FFF7DD
:10A76000A1FF0190019B002B0BD0019B022B08D075
:10A7700006494FF4B07008F02DFE02E020BF40BF44
:10A7800020BF00BF03B05DF804FB00BFB0FA0300B8
:10A7900000B583B00FE02248FFF71CFF0190019B3A
:10A7A0001B68204A1278104698470346002B32D087
:10A7B0001B4800F09BFA1A48FFF70CFF0346002BDA
:10A7C000E9D1FCF745FD00BFFCF700FB0346002B79
:10A7D000FAD1144B1B78032B03D0124B1B78022B9E
:10A7E00001D1FFF7E3FE12F0E5FF0346002B0FD087
:10A7F000FFF754FF0090009B002B07D0009B022B1B
:10A8000004D009494FF4D17008F0E4FD20BFFDE702
:10A81000FFF74CFF00E000BF03B05DF804FB00BF92
:10A82000DC470020D0470020B0FA030000B583B019
:10A8300003468DF807301748FFF7F4FE034683F010
:10A840000103DBB2002B21D19DF80730042B0ED081
:10A85000114B1B78002B03D00E48FFF701FF16E0C9
:10A860000E4A9DF8073013700B4B01221A700A4BE9
:10A870001B78002B04D10A4940F2D51008F0AAFD3C
:10A88000FFF786FF0348FFF7EBFE00E000BF03B0D1
:10A890005DF804FBD4470020D8470020D0470020B3
:10A8A000B0FA030082B00190019B9B68024A1278C3
:10A8B0001344184602B07047A4FB030000B583B0F0
:10A8C00001900091019B002B03D10849832008F0DF
:10A8D00081FD019B9B68009A9A4202D2009B013342
:10A8E00000E00023184603B05DF804FB34FB0300CE
:10A8F00000B585B00190019B1B681B680393019B09
:10A900001B685B680293029A039B9A4203D3029AE4
:10A91000039BD31A07E00198FFF7C4FF0246039B8D
:10A92000D21A029B1344184605B05DF804FB0000E0
:10A9300000B585B00190019B002B03D10D499820F3
:10A9400008F048FD019B1B681B680393019B1B6873
:10A950005B68029302990198FFF7B0FF0246039BE0
:10A9600093420CBF01230023DBB2184605B05DF80B
:10A9700004FB00BF34FB030010B588B001900091C8
:10A9800000230793019B002B03D15649A32008F015
:10A9900021FD009B002B03D15249A42008F01AFD91
:10A9A00000238DF80F300DF10F031846FEF72EF936
:10A9B0000198FFF7BDFF03468DF81B309DF81B3053
:10A9C00083F00103DBB2002B03D1019B1B7C002B26
:10A9D0007BD1019B1B685B680593019B1B685A68D0
:10A9E000019B1C6811460198FFF768FF03466360EE
:10A9F0009DF81B30002B0AD0019B1B681A68019B35
:10AA00001C6811460198FFF759FF03462360019B1C
:10AA1000DB68013B072B38D801A252F823F000BFB6
:10AA200041AA020051AA02008BAA020063AA0200F6
:10AA30008BAA02008BAA02008BAA020075AA020050
:10AA4000019B5A68059B1344009A12781A702DE0F6
:10AA5000019B5A68059B5B001344009A12881A8078
:10AA600024E0019B5A68059B9B001344009A1268DE
:10AA70001A601BE0019B5A68059BDB00D118009B04
:10AA8000D3E90023C1E9002310E0019B5B6819466C
:10AA9000019BDB68059A02FB03F30B441846019BFC
:10AAA000DB681A46009913F039FC00BF0198FFF7E4
:10AAB0001FFF0490019B1B689B68049A9A4207D968
:10AAC000019B1B68049A9A6002E00423079300E04C
:10AAD00000BF9DF80F301846FEF7AEF8079B1846EA
:10AAE00008B010BD34FB030010B588B0039002918C
:10AAF00013468DF8073000230793039B002B03D1E7
:10AB00004549E72008F066FC029B002B03D142492F
:10AB1000E82008F05FFC00238DF817300DF11703D3
:10AB20001846FEF773F8039800F078F8034683F0B0
:10AB30000103DBB2002B63D0039B1B681B680693E9
:10AB40009DF8073083F00103DBB2002B0AD0039B92
:10AB50001B681A68039B1C6811460398FFF7AEFE3A
:10AB600003462360039BDB68013B072B37D801A218
:10AB700052F823F095AB0200A5AB0200DFAB020058
:10AB8000B7AB0200DFAB0200DFAB0200DFAB0200BD
:10AB9000C9AB0200039B5A68069B13441A78029BB8
:10ABA0001A702FE0039B5A68069B5B0013441A88B7
:10ABB000029B1A8026E0039B5A68069B9B00134465
:10ABC0001A68029B1A601DE0039B5A68069BDB0013
:10ABD0001344D3E900230299C1E9002312E0039B47
:10ABE0005B681946039BDB68069A02FB03F30B4480
:10ABF0001946039BDB681A46029813F08FFB01E0AD
:10AC0000052307939DF817301846FEF715F8079BA4
:10AC1000184608B010BD00BF34FB030000B585B076
:10AC20000190019B002B04D10B4940F22B2008F02E
:10AC3000D1FB019B1B681B680393019B1B685B682E
:10AC40000293039A029B9A420CBF01230023DBB2BA
:10AC5000184605B05DF804FB34FB030082B0019098
:10AC6000019B9B6800229A60019B9B6800221A61ED
:10AC7000019B9B6800225A61019B9B680022DA605D
:10AC8000019B9B6800225A60019B9B6800221A600E
:10AC900000BF02B07047000000B583B00190009182
:10ACA000019B002B03D11049502008F093FB009B1F
:10ACB000002B03D10C49512008F08CFB019B009A1A
:10ACC0001A60019B1B681A68019B5A60019B5A68B5
:10ACD000019B1B685B689A4202D1019B00225A606B
:10ACE00000BF03B05DF804FBA8FB030000B583B010
:10ACF0000190019B002B03D11449632008F06AFBEB
:10AD0000019B1B68002B03D11049642008F062FBF3
:10AD1000019B5B68002B14D0019B5B681A46019B6A
:10AD20001B689B6813441A46019B5A60019B5A6832
:10AD3000019B1B685B689A4204D1019B00225A6008
:10AD400000E000BF03B05DF804FB00BFA8FB0300F8
:10AD500000B585B001900091019B002B03D11849EB
:10AD60003A2008F037FB009B002B03D114493B200D
:10AD700008F030FB019B5B6803930FE0019B9B682D
:10AD8000039A1268009910469847034683F001031E
:10AD9000DBB2002B07D1039B1B680393039B1B684B
:10ADA000002BEBD100E000BF039B1A68009B1A60E8
:10ADB000039B009A1A6000BF05B05DF804FB00BF5A
:10ADC00040FC030000B585B00190019B002B03D12E
:10ADD0000C49512008F0FEFA019B5B681B68039345
:10ADE000019B5B681B68002B06D0019B5B681A689F
:10ADF000019B5B6812681A60039B184605B05DF8FA
:10AE000004FB00BF40FC030000B583B00190019B30
:10AE1000002B03D105495D2008F0DCFA019B5B683B
:10AE20001B68184603B05DF804FB00BF40FC03003C
:10AE300000B585B001900091019B002B03D116490C
:10AE4000692008F0C7FA009B002B03D112496A2041
:10AE500008F0C0FA00238DF80B30019B5B68039368
:10AE60000FE0039B1B68009A9A4207D1009B1A6867
:10AE7000039B1A6001238DF80B3006E0039B1B68CF
:10AE80000393039B1B68002BEBD19DF80B301846F6
:10AE900005B05DF804FB00BF40FC030000B585B0C1
:10AEA0000190019800F00EF80390039B002B01D055
:10AEB000039B00E0024B184605B05DF804FB00BFA1
:10AEC000B8FC030086B00190164B0593164B049313
:10AED0001FE0049A059BD31ADB10DA0F13445B10B2
:10AEE000DB00059A13440393039B1B680293029AA9
:10AEF000019B9A4202D9039B04930AE0029A019BA8
:10AF00009A4203D2039B0833059302E0039B5B68DC
:10AF100004E0059A049B9A42DBD30023184606B04E
:10AF2000704700BFB8000400E001040000B585B020
:10AF300001900091009B5B099B00019A1A44009BC1
:10AF400003F01F03012101FA03F319461046FEF72F
:10AF5000F2FB039000BF05B05DF804FB00B585B0BF
:10AF600001900091009B5B099B00019A1A44009B91
:10AF700003F01F03012101FA03F3DB4319461046D6
:10AF8000FEF709FC039000BF05B05DF804FB82B03A
:10AF900001900091009B5B099B00019A13441A6881
:10AFA000009B03F01F0322FA03F303F00103002BBD
:10AFB00014BF01230023DBB2184602B0704782B0F1
:10AFC0000190019B03F00303002B0CBF012300231E
:10AFD000DBB2184602B0704700B585B0019000237F
:10AFE00003930EE00B4A039B52F82330002B05D04D
:10AFF000084A039B52F8233001989847039B01337A
:10B000000393039B032BEDD900BF00BF05B05DF890
:10B0100004FB00BFF447002082B001900091019B27
:10B020001B78013B052B61D801A252F823F000BF29
:10B0300049B0020051B0020077B00200A9B002008E
:10B04000C9B00200E5B00200009B00221A704EE079
:10B05000009B01221A70019B1A89009B9A81019B17
:10B060009A88009BDA81019BDA68009B9A60009BBA
:10B0700000221A743BE0009B02221A70019B1A897D
:10B08000009B9A81019B9A88009BDA81019BDA6878
:10B09000009B9A60019B9B7D062B0CBF0123002324
:10B0A000DAB2009B1A7422E0009B03221A70019B03
:10B0B000DA88009B9A81019B1A89009BDA81019BA7
:10B0C000DA68009B9A6012E0009B04221A70019BD0
:10B0D000DA88009B9A81009B0022DA81009B002283
:10B0E0009A6004E0009B05221A7000E000BF00BFD8
:10B0F00002B0704784B001900091019B0393039AC2
:10B10000009B9A4206D2039B1B68B3F1FF3F01D01C
:10B11000012300E0002303F00103DBB2184604B072
:10B12000704782B00190019B5B8803339B00019ABA
:10B130001344184602B0704700B583B001900091E7
:10B140000198FFF7EEFF0246009B934201D20223D3
:10B1500011E0019B9B884FF6FF72934208D0019B40
:10B160001B88002B04D0019B9B68B3F1FF3F01D1EA
:10B17000012300E00023184603B05DF804FB000043
:10B1800000B583B00190019B002B13D00D4BDB6801
:10B190001A46019B93420DD30A4B1B691A46019B29
:10B1A000934207D80198FFF70AFF0346002B01D00E
:10B1B000012300E0002303F00103DBB2184603B0D3
:10B1C0005DF804FBC839002082B00190019B002B80
:10B1D00004D0019B1B680B4A934201D003230DE06E
:10B1E000019B04331B68084A934204D0074A9342E8
:10B1F00003D1012302E0002300E00323184602B03C
:10B20000704700BFDEC0ADDEFE011EF1FF011EF182
:10B2100084B00190019B1B68B3F1FF3F06D0019BF6
:10B220001B680E4A934201D0002314E001230393CC
:10B230000CE0039B9B00019A13441B68B3F1FF3F92
:10B2400001D0002307E0039B01330393039BB3F575
:10B25000806FEED30123184604B07047DEC0ADDE28
:10B2600082B003460A46ADF806301346ADF8043006
:10B27000BDF80620134913469B0013449B000B4462
:10B2800008331A88BDF804301344ADF80430BDF813
:10B2900006200C4913469B0013449B000B440A33C1
:10B2A0001A88BDF804301344ADF80430BDF80430FA
:10B2B000B3F5806F94BF01230023DBB2184602B0C0
:10B2C000704700BFA448002084B00190009148F26C
:10B2D000096303930023ADF80A3027E0BDF80A2084
:10B2E000164913469B0013449B000B4404331B6810
:10B2F000009A9A4215D9BDF80A20104913469B00BE
:10B3000013449B000B4404331B6803F58053009ADD
:10B310009A4206D200230393019BBDF80A201A80AB
:10B3200008E0BDF80A300133ADF80A30BDF80A3044
:10B33000072BD3D9039B184604B07047A4480020BC
:10B3400000B589B0039002910192039B03F58053ED
:10B350000693039B08330393029B02221A80039BEC
:10B36000079332E006990798FFF7E6FE03468DF84B
:10B3700017309DF81730002B0AD1079B9A68184B9D
:10B380001B689A4213D9079B9B68154A13600EE00D
:10B39000019B002B02D0019B01221A709DF81730EF
:10B3A000022B04D1029B4FF480621A8014E0029BAE
:10B3B0001A88079B5B8813449BB203339AB2029BA3
:10B3C0001A800798FFF7ADFE079006990798FFF7D8
:10B3D00091FE0346002BC5D109B05DF804FB00BF08
:10B3E0000448002082B001900091009B9B7D022BBD
:10B3F00009D9019B1A89009BDB8813449BB2033354
:10B400009AB2019B1A81019B5A89009BDB88D31A4F
:10B410009BB2033B9AB2019B5A8100BF02B07047B6
:10B4200000B583B0074B1B6819460023009308231F
:10B43000054A064801F024FD0346184603B05DF8AE
:10B4400004FB00BF4449002048020400C839002022
:10B4500000B585B003900399002300930823044AA4
:10B46000044801F00DFD0346184605B05DF804FBE5
:10B4700050020400C839002000B585B00346009191
:10B48000ADF8063000238DF80F30BDF806300333D9
:10B49000ADF80A30BDF80A3040F2FE32934202D9CC
:10B4A00048F208634BE00023ADF80C303BE0BDF8F8
:10B4B0000C20254913469B0013449B000B441B782A
:10B4C000002B2BD1BDF80A20BDF80C3011461846D0
:10B4D000FFF7C6FE0346002B20D001238DF80F3066
:10B4E000009BBDF80C201A80BDF80C2016491346AD
:10B4F0009B0013449B000B440A331988BDF80C20B1
:10B50000BDF80A300B4498B20F4913469B00134410
:10B510009B000B440A3302461A8008E0BDF80C3049
:10B520000133ADF80C30BDF80C30072BBFD99DF8B6
:10B530000F30002B01D0002301E048F206631846CB
:10B5400005B05DF804FB00BFA448002082B00346AC
:10B550000A46ADF806301346ADF80430BDF80420B5
:10B560000D4913469B0013449B000B440A331A8871
:10B57000BDF80630D31A9BB2BDF80420033B98B245
:10B58000054913469B0013449B000B440A330246B3
:10B590001A8000BF02B07047A448002008B50121FE
:10B5A0000248FEF728F90346184608BD0448002063
:10B5B00000B585B003460091ADF80630BDF8062011
:10B5C000244913469B0013449B000B4404331B681F
:10B5D00003F580530293009B1B680393039B002B8E
:10B5E00004D00398FFF79DFD039026E0BDF80620E8
:10B5F000184913469B0013449B000B4404331B68FB
:10B600000833039319E002990398FFF795FD034669
:10B61000022B10D0022B10DC002B02D0012B05D006
:10B620000BE0009B039A1A6001230EE00398FFF7DA
:10B6300078FD039001E0002307E002990398FFF7EB
:10B6400059FD0346002BDED10023184605B05DF8F6
:10B6500004FB00BFA448002000B585B00190009114
:10B66000019B5B681846FFF78BFD0346002B19D042
:10B67000019B1A89244B1B899A4213D1019B1A689A
:10B68000019B5B689B689A420CD1019B5B681946E1
:10B690000098FFF719FE0346002B0CBF012300237F
:10B6A000DBB22CE0009B00221A8023E000230293EF
:10B6B00010E0029B0393039B9A68019B1B689A42CC
:10B6C00008D1029A019B5A600F4B1A89019B1A817B
:10B6D000012314E0009B1B8802AA11461846FFF7BD
:10B6E00067FF0346002BE4D1009B1B8801339AB20D
:10B6F000009B1A80009B1B88072BD7D90023184674
:10B7000005B05DF804FB00BF4C49002000B587B0D0
:10B710000390029101920093324B1B78DBB283F0CD
:10B720000103DBB2002B02D048F2016355E0019B1C
:10B73000002B02D0009B002B49D148F204634CE05F
:10B74000009B9B881946284A0B469B000B449B0094
:10B7500013441B78002B33D124E0009B1B68059316
:10B76000039B002B06D0059B9A88039B1B889A425B
:10B7700000D017E0029B002B06D0059B1A88029B85
:10B780001B889A4200D00DE0059B9A68019B1A60C5
:10B79000009B1A68019B5A60144B1A89019B1A81FD
:10B7A00000231AE0009B9B88009A11461846FFF779
:10B7B000FFFE0346002BD0D1009B00221A6000E060
:10B7C00000BF009B9B8801339AB2009B9A80009B2C
:10B7D0009B88072BB4D948F20963184607B05DF877
:10B7E00004FB00BFE4470020A44800204C4900208F
:10B7F00000B587B00291019200930346ADF80E3078
:10B80000BDF80E20324913469B0013449B000B44A5
:10B8100004331B6808330593BDF80E202C491346EA
:10B820009B0013449B000B4404331B6803F58053B7
:10B83000049342E004990598FFF77EFC0346022B2F
:10B8400025D0022B38DC002B16D0012B34D1019BE4
:10B850001B8801339AB2019B1A80009B1A88059BB2
:10B860005B8813449BB203339AB2009B1A800598FD
:10B87000FFF757FC059020E0029B1B8801339AB22A
:10B88000029B1A800598FFF74CFC059015E0019B80
:10B890001B8801339AB2019B1A80009B1A88049975
:10B8A000059BCB1A9B109BB213449AB2009B1A8043
:10B8B000089B01221A7007E000BF04990598FFF762
:10B8C00019FC0346002BB5D107B05DF804FB00BF9F
:10B8D000A448002000B585B00190084B0199184696
:10B8E000FDF7A0FE03901C220021039812F03FFDFB
:10B8F000039B184605B05DF804FB00BF9448002088
:10B9000000B583B00190044B01991846FDF7A3FEE2
:10B9100000BF03B05DF804FB9448002000B583B07D
:10B920000190054B01991846FDF7A9FE03461846FC
:10B9300003B05DF804FB00BF9448002000B583B05D
:10B940000190044B01991846FDF7B2FE00BF03B009
:10B950005DF804FB9448002008B50A4B1B68002BD7
:10B9600004D109494FF4247007F034FD0121054842
:10B97000FDF759FF0346002B14BF01230023DBB260
:10B98000184608BDEC470020E001040000B587B070
:10B99000002305930023ADF812300923ADF81030D1
:10B9A00000238DF80F300023ADF80C30F7E0BDF820
:10B9B0000C301A03824BDB68134402930298FFF7A2
:10B9C00003FC03468DF807309DF80730032B08D0A1
:10B9D000032B00F3DE80002B65D0012B00F0988054
:10B9E000D7E00298FFF714FC0346002B3BD0754BC1
:10B9F0001B68002B29D0BDF81220734913469B0009
:10BA000013449B000B4402221A70BDF812206E49A9
:10BA100013469B0013449B000B440433029A1A60A4
:10BA2000BDF81220684913469B0013449B000B4449
:10BA3000083302221A80654ABDF812305380BDF8DF
:10BA400012300133ADF8123008E05E4A029B1360F9
:10BA50005C4B02229A8001238DF80F30059B43F046
:10BA60000103059396E0BDF81030013BADF81030AE
:10BA7000BDF81220544913469B0013449B000B440D
:10BA80000433029A1A60BDF812204F4913469B00F6
:10BA900013449B000B4403221A70BDF8123001338B
:10BAA000ADF8123076E0BDF81220474913469B00EE
:10BAB00013449B000B4400221A70BDF81220424927
:10BAC00013469B0013449B000B440433029A1A60F4
:10BAD000BDF8122013469B0013449B0008333A4ADA
